{
	"data": {
		"bytecode": {
			"linkReferences": {},
			"object": "608060405234801561001057600080fd5b5061002d61002261003260201b60201c565b61003a60201b60201c565b6100fe565b600033905090565b60008060009054906101000a900473ffffffffffffffffffffffffffffffffffffffff169050816000806101000a81548173ffffffffffffffffffffffffffffffffffffffff021916908373ffffffffffffffffffffffffffffffffffffffff1602179055508173ffffffffffffffffffffffffffffffffffffffff168173ffffffffffffffffffffffffffffffffffffffff167f8be0079c531659141344cd1fd0a4f28419497f9722a3daafe3b4186f6b6457e060405160405180910390a35050565b6114a28061010d6000396000f3fe6080604052600436106100a75760003560e01c8063e7fd72ee11610064578063e7fd72ee14610187578063f2678dfa146101b0578063f2fde38b146101c7578063f3eb3a60146101f0578063f715272e14610219578063fd9908e314610242576100a7565b8063715018a6146100ac57806379c5cb1c146100c3578063891a2f31146100ec5780638da5cb5b14610108578063dfd47f0d14610133578063e08d490b14610170575b600080fd5b3480156100b857600080fd5b506100c1610282565b005b3480156100cf57600080fd5b506100ea60048036038101906100e59190610d85565b610296565b005b61010660048036038101906101019190610d29565b610321565b005b34801561011457600080fd5b5061011d610475565b60405161012a9190610f95565b60405180910390f35b34801561013f57600080fd5b5061015a60048036038101906101559190610c84565b61049e565b604051610167919061103c565b60405180910390f35b34801561017c57600080fd5b506101856104d9565b005b34801561019357600080fd5b506101ae60048036038101906101a99190610d29565b61052a565b005b3480156101bc57600080fd5b506101c561055c565b005b3480156101d357600080fd5b506101ee60048036038101906101e99190610c57565b610794565b005b3480156101fc57600080fd5b5061021760048036038101906102129190610d29565b610818565b005b34801561022557600080fd5b50610240600480360381019061023b9190610d29565b61084a565b005b34801561024e57600080fd5b5061026960048036038101906102649190610ce0565b610902565b6040516102799493929190610fb0565b60405180910390f35b61028a6109d0565b6102946000610a4e565b565b61029e6109d0565b6040518060800160405280858152602001848152602001838152602001828152506002856040516102cf9190610f3f565b908152602001604051809103902060008201518160000190805190602001906102f9929190610b1a565b5060208201518160010155604082015181600201556060820151816003015590505050505050565b806002836040516103329190610f3f565b90815260200160405180910390206001015461034e919061112a565b341461035957600080fd5b80600160003373ffffffffffffffffffffffffffffffffffffffff1673ffffffffffffffffffffffffffffffffffffffff168152602001908152602001600020836040516103a79190610f3f565b9081526020016040518091039020546103c091906110d4565b600160003373ffffffffffffffffffffffffffffffffffffffff1673ffffffffffffffffffffffffffffffffffffffff1681526020019081526020016000208360405161040d9190610f3f565b908152602001604051809103902081905550806002836040516104309190610f3f565b90815260200160405180910390206003015461044c9190611184565b60028360405161045c9190610f3f565b9081526020016040518091039020600301819055505050565b60008060009054906101000a900473ffffffffffffffffffffffffffffffffffffffff16905090565b600160205281600052604060002081805160208101820180518482526020830160208501208183528095505050505050600091509150505481565b6104e16109d0565b3373ffffffffffffffffffffffffffffffffffffffff166108fc479081150290604051600060405180830381858888f19350505050158015610527573d6000803e3d6000fd5b50565b6105326109d0565b806002836040516105439190610f3f565b9081526020016040518091039020600101819055505050565b6105646109d0565b60405180608001604052806040518060400160405280600481526020017f636f6361000000000000000000000000000000000000000000000000000000008152508152602001670de0b6b3a76400008152602001600f8152602001600581525060026040516105d290610f80565b908152602001604051809103902060008201518160000190805190602001906105fc929190610b1a565b5060208201518160010155604082015181600201556060820151816003015590505060405180608001604052806040518060400160405280600581526020017f66616e74610000000000000000000000000000000000000000000000000000008152508152602001670de0b6b3a76400008152602001600f81526020016005815250600260405161068c90610f56565b908152602001604051809103902060008201518160000190805190602001906106b6929190610b1a565b5060208201518160010155604082015181600201556060820151816003015590505060405180608001604052806040518060400160405280600781526020017f6963655f746561000000000000000000000000000000000000000000000000008152508152602001670de0b6b3a76400008152602001600f81526020016005815250600260405161074690610f6b565b90815260200160405180910390206000820151816000019080519060200190610770929190610b1a565b50602082015181600101556040820151816002015560608201518160030155905050565b61079c6109d0565b600073ffffffffffffffffffffffffffffffffffffffff168173ffffffffffffffffffffffffffffffffffffffff16141561080c576040517f08c379a000000000000000000000000000000000000000000000000000000000815260040161080390610ffc565b60405180910390fd5b61081581610a4e565b50565b6108206109d0565b806002836040516108319190610f3f565b9081526020016040518091039020600201819055505050565b6108526109d0565b6002826040516108629190610f3f565b908152602001604051809103902060020154816002846040516108859190610f3f565b9081526020016040518091039020600301546108a191906110d4565b11156108ac57600080fd5b806002836040516108bd9190610f3f565b9081526020016040518091039020600301546108d991906110d4565b6002836040516108e99190610f3f565b9081526020016040518091039020600301819055505050565b60028180516020810182018051848252602083016020850120818352809550505050505060009150905080600001805461093b90611236565b80601f016020809104026020016040519081016040528092919081815260200182805461096790611236565b80156109b45780601f10610989576101008083540402835291602001916109b4565b820191906000526020600020905b81548152906001019060200180831161099757829003601f168201915b5050505050908060010154908060020154908060030154905084565b6109d8610b12565b73ffffffffffffffffffffffffffffffffffffffff166109f6610475565b73ffffffffffffffffffffffffffffffffffffffff1614610a4c576040517f08c379a0000000000000000000000000000000000000000000000000000000008152600401610a439061101c565b60405180910390fd5b565b60008060009054906101000a900473ffffffffffffffffffffffffffffffffffffffff169050816000806101000a81548173ffffffffffffffffffffffffffffffffffffffff021916908373ffffffffffffffffffffffffffffffffffffffff1602179055508173ffffffffffffffffffffffffffffffffffffffff168173ffffffffffffffffffffffffffffffffffffffff167f8be0079c531659141344cd1fd0a4f28419497f9722a3daafe3b4186f6b6457e060405160405180910390a35050565b600033905090565b828054610b2690611236565b90600052602060002090601f016020900481019282610b485760008555610b8f565b82601f10610b6157805160ff1916838001178555610b8f565b82800160010185558215610b8f579182015b82811115610b8e578251825591602001919060010190610b73565b5b509050610b9c9190610ba0565b5090565b5b80821115610bb9576000816000905550600101610ba1565b5090565b6000610bd0610bcb8461107c565b611057565b905082815260208101848484011115610bec57610beb61132b565b5b610bf78482856111f4565b509392505050565b600081359050610c0e8161143e565b92915050565b600082601f830112610c2957610c28611326565b5b8135610c39848260208601610bbd565b91505092915050565b600081359050610c5181611455565b92915050565b600060208284031215610c6d57610c6c611335565b5b6000610c7b84828501610bff565b91505092915050565b60008060408385031215610c9b57610c9a611335565b5b6000610ca985828601610bff565b925050602083013567ffffffffffffffff811115610cca57610cc9611330565b5b610cd685828601610c14565b9150509250929050565b600060208284031215610cf657610cf5611335565b5b600082013567ffffffffffffffff811115610d1457610d13611330565b5b610d2084828501610c14565b91505092915050565b60008060408385031215610d4057610d3f611335565b5b600083013567ffffffffffffffff811115610d5e57610d5d611330565b5b610d6a85828601610c14565b9250506020610d7b85828601610c42565b9150509250929050565b60008060008060808587031215610d9f57610d9e611335565b5b600085013567ffffffffffffffff811115610dbd57610dbc611330565b5b610dc987828801610c14565b9450506020610dda87828801610c42565b9350506040610deb87828801610c42565b9250506060610dfc87828801610c42565b91505092959194509250565b610e11816111b8565b82525050565b6000610e22826110ad565b610e2c81856110b8565b9350610e3c818560208601611203565b610e458161133a565b840191505092915050565b6000610e5b826110ad565b610e6581856110c9565b9350610e75818560208601611203565b80840191505092915050565b6000610e8e6026836110b8565b9150610e998261134b565b604082019050919050565b6000610eb16005836110c9565b9150610ebc8261139a565b600582019050919050565b6000610ed46020836110b8565b9150610edf826113c3565b602082019050919050565b6000610ef76007836110c9565b9150610f02826113ec565b600782019050919050565b6000610f1a6004836110c9565b9150610f2582611415565b600482019050919050565b610f39816111ea565b82525050565b6000610f4b8284610e50565b915081905092915050565b6000610f6182610ea4565b9150819050919050565b6000610f7682610eea565b9150819050919050565b6000610f8b82610f0d565b9150819050919050565b6000602082019050610faa6000830184610e08565b92915050565b60006080820190508181036000830152610fca8187610e17565b9050610fd96020830186610f30565b610fe66040830185610f30565b610ff36060830184610f30565b95945050505050565b6000602082019050818103600083015261101581610e81565b9050919050565b6000602082019050818103600083015261103581610ec7565b9050919050565b60006020820190506110516000830184610f30565b92915050565b6000611061611072565b905061106d8282611268565b919050565b6000604051905090565b600067ffffffffffffffff821115611097576110966112f7565b5b6110a08261133a565b9050602081019050919050565b600081519050919050565b600082825260208201905092915050565b600081905092915050565b60006110df826111ea565b91506110ea836111ea565b9250827fffffffffffffffffffffffffffffffffffffffffffffffffffffffffffffffff0382111561111f5761111e611299565b5b828201905092915050565b6000611135826111ea565b9150611140836111ea565b9250817fffffffffffffffffffffffffffffffffffffffffffffffffffffffffffffffff048311821515161561117957611178611299565b5b828202905092915050565b600061118f826111ea565b915061119a836111ea565b9250828210156111ad576111ac611299565b5b828203905092915050565b60006111c3826111ca565b9050919050565b600073ffffffffffffffffffffffffffffffffffffffff82169050919050565b6000819050919050565b82818337600083830152505050565b60005b83811015611221578082015181840152602081019050611206565b83811115611230576000848401525b50505050565b6000600282049050600182168061124e57607f821691505b60208210811415611262576112616112c8565b5b50919050565b6112718261133a565b810181811067ffffffffffffffff821117156112905761128f6112f7565b5b80604052505050565b7f4e487b7100000000000000000000000000000000000000000000000000000000600052601160045260246000fd5b7f4e487b7100000000000000000000000000000000000000000000000000000000600052602260045260246000fd5b7f4e487b7100000000000000000000000000000000000000000000000000000000600052604160045260246000fd5b600080fd5b600080fd5b600080fd5b600080fd5b6000601f19601f8301169050919050565b7f4f776e61626c653a206e6577206f776e657220697320746865207a65726f206160008201527f6464726573730000000000000000000000000000000000000000000000000000602082015250565b7f66616e7461000000000000000000000000000000000000000000000000000000600082015250565b7f4f776e61626c653a2063616c6c6572206973206e6f7420746865206f776e6572600082015250565b7f6963655f74656100000000000000000000000000000000000000000000000000600082015250565b7f636f636100000000000000000000000000000000000000000000000000000000600082015250565b611447816111b8565b811461145257600080fd5b50565b61145e816111ea565b811461146957600080fd5b5056fea2646970667358221220461fd4c9487e99c87168e8ead432dbaca5ecf5880551752990709ba46d99452664736f6c63430008070033",
			"opcodes": "PUSH1 0x80 PUSH1 0x40 MSTORE CALLVALUE DUP1 ISZERO PUSH2 0x10 JUMPI PUSH1 0x0 DUP1 REVERT JUMPDEST POP PUSH2 0x2D PUSH2 0x22 PUSH2 0x32 PUSH1 0x20 SHL PUSH1 0x20 SHR JUMP JUMPDEST PUSH2 0x3A PUSH1 0x20 SHL PUSH1 0x20 SHR JUMP JUMPDEST PUSH2 0xFE JUMP JUMPDEST PUSH1 0x0 CALLER SWAP1 POP SWAP1 JUMP JUMPDEST PUSH1 0x0 DUP1 PUSH1 0x0 SWAP1 SLOAD SWAP1 PUSH2 0x100 EXP SWAP1 DIV PUSH20 0xFFFFFFFFFFFFFFFFFFFFFFFFFFFFFFFFFFFFFFFF AND SWAP1 POP DUP2 PUSH1 0x0 DUP1 PUSH2 0x100 EXP DUP2 SLOAD DUP2 PUSH20 0xFFFFFFFFFFFFFFFFFFFFFFFFFFFFFFFFFFFFFFFF MUL NOT AND SWAP1 DUP4 PUSH20 0xFFFFFFFFFFFFFFFFFFFFFFFFFFFFFFFFFFFFFFFF AND MUL OR SWAP1 SSTORE POP DUP2 PUSH20 0xFFFFFFFFFFFFFFFFFFFFFFFFFFFFFFFFFFFFFFFF AND DUP2 PUSH20 0xFFFFFFFFFFFFFFFFFFFFFFFFFFFFFFFFFFFFFFFF AND PUSH32 0x8BE0079C531659141344CD1FD0A4F28419497F9722A3DAAFE3B4186F6B6457E0 PUSH1 0x40 MLOAD PUSH1 0x40 MLOAD DUP1 SWAP2 SUB SWAP1 LOG3 POP POP JUMP JUMPDEST PUSH2 0x14A2 DUP1 PUSH2 0x10D PUSH1 0x0 CODECOPY PUSH1 0x0 RETURN INVALID PUSH1 0x80 PUSH1 0x40 MSTORE PUSH1 0x4 CALLDATASIZE LT PUSH2 0xA7 JUMPI PUSH1 0x0 CALLDATALOAD PUSH1 0xE0 SHR DUP1 PUSH4 0xE7FD72EE GT PUSH2 0x64 JUMPI DUP1 PUSH4 0xE7FD72EE EQ PUSH2 0x187 JUMPI DUP1 PUSH4 0xF2678DFA EQ PUSH2 0x1B0 JUMPI DUP1 PUSH4 0xF2FDE38B EQ PUSH2 0x1C7 JUMPI DUP1 PUSH4 0xF3EB3A60 EQ PUSH2 0x1F0 JUMPI DUP1 PUSH4 0xF715272E EQ PUSH2 0x219 JUMPI DUP1 PUSH4 0xFD9908E3 EQ PUSH2 0x242 JUMPI PUSH2 0xA7 JUMP JUMPDEST DUP1 PUSH4 0x715018A6 EQ PUSH2 0xAC JUMPI DUP1 PUSH4 0x79C5CB1C EQ PUSH2 0xC3 JUMPI DUP1 PUSH4 0x891A2F31 EQ PUSH2 0xEC JUMPI DUP1 PUSH4 0x8DA5CB5B EQ PUSH2 0x108 JUMPI DUP1 PUSH4 0xDFD47F0D EQ PUSH2 0x133 JUMPI DUP1 PUSH4 0xE08D490B EQ PUSH2 0x170 JUMPI JUMPDEST PUSH1 0x0 DUP1 REVERT JUMPDEST CALLVALUE DUP1 ISZERO PUSH2 0xB8 JUMPI PUSH1 0x0 DUP1 REVERT JUMPDEST POP PUSH2 0xC1 PUSH2 0x282 JUMP JUMPDEST STOP JUMPDEST CALLVALUE DUP1 ISZERO PUSH2 0xCF JUMPI PUSH1 0x0 DUP1 REVERT JUMPDEST POP PUSH2 0xEA PUSH1 0x4 DUP1 CALLDATASIZE SUB DUP2 ADD SWAP1 PUSH2 0xE5 SWAP2 SWAP1 PUSH2 0xD85 JUMP JUMPDEST PUSH2 0x296 JUMP JUMPDEST STOP JUMPDEST PUSH2 0x106 PUSH1 0x4 DUP1 CALLDATASIZE SUB DUP2 ADD SWAP1 PUSH2 0x101 SWAP2 SWAP1 PUSH2 0xD29 JUMP JUMPDEST PUSH2 0x321 JUMP JUMPDEST STOP JUMPDEST CALLVALUE DUP1 ISZERO PUSH2 0x114 JUMPI PUSH1 0x0 DUP1 REVERT JUMPDEST POP PUSH2 0x11D PUSH2 0x475 JUMP JUMPDEST PUSH1 0x40 MLOAD PUSH2 0x12A SWAP2 SWAP1 PUSH2 0xF95 JUMP JUMPDEST PUSH1 0x40 MLOAD DUP1 SWAP2 SUB SWAP1 RETURN JUMPDEST CALLVALUE DUP1 ISZERO PUSH2 0x13F JUMPI PUSH1 0x0 DUP1 REVERT JUMPDEST POP PUSH2 0x15A PUSH1 0x4 DUP1 CALLDATASIZE SUB DUP2 ADD SWAP1 PUSH2 0x155 SWAP2 SWAP1 PUSH2 0xC84 JUMP JUMPDEST PUSH2 0x49E JUMP JUMPDEST PUSH1 0x40 MLOAD PUSH2 0x167 SWAP2 SWAP1 PUSH2 0x103C JUMP JUMPDEST PUSH1 0x40 MLOAD DUP1 SWAP2 SUB SWAP1 RETURN JUMPDEST CALLVALUE DUP1 ISZERO PUSH2 0x17C JUMPI PUSH1 0x0 DUP1 REVERT JUMPDEST POP PUSH2 0x185 PUSH2 0x4D9 JUMP JUMPDEST STOP JUMPDEST CALLVALUE DUP1 ISZERO PUSH2 0x193 JUMPI PUSH1 0x0 DUP1 REVERT JUMPDEST POP PUSH2 0x1AE PUSH1 0x4 DUP1 CALLDATASIZE SUB DUP2 ADD SWAP1 PUSH2 0x1A9 SWAP2 SWAP1 PUSH2 0xD29 JUMP JUMPDEST PUSH2 0x52A JUMP JUMPDEST STOP JUMPDEST CALLVALUE DUP1 ISZERO PUSH2 0x1BC JUMPI PUSH1 0x0 DUP1 REVERT JUMPDEST POP PUSH2 0x1C5 PUSH2 0x55C JUMP JUMPDEST STOP JUMPDEST CALLVALUE DUP1 ISZERO PUSH2 0x1D3 JUMPI PUSH1 0x0 DUP1 REVERT JUMPDEST POP PUSH2 0x1EE PUSH1 0x4 DUP1 CALLDATASIZE SUB DUP2 ADD SWAP1 PUSH2 0x1E9 SWAP2 SWAP1 PUSH2 0xC57 JUMP JUMPDEST PUSH2 0x794 JUMP JUMPDEST STOP JUMPDEST CALLVALUE DUP1 ISZERO PUSH2 0x1FC JUMPI PUSH1 0x0 DUP1 REVERT JUMPDEST POP PUSH2 0x217 PUSH1 0x4 DUP1 CALLDATASIZE SUB DUP2 ADD SWAP1 PUSH2 0x212 SWAP2 SWAP1 PUSH2 0xD29 JUMP JUMPDEST PUSH2 0x818 JUMP JUMPDEST STOP JUMPDEST CALLVALUE DUP1 ISZERO PUSH2 0x225 JUMPI PUSH1 0x0 DUP1 REVERT JUMPDEST POP PUSH2 0x240 PUSH1 0x4 DUP1 CALLDATASIZE SUB DUP2 ADD SWAP1 PUSH2 0x23B SWAP2 SWAP1 PUSH2 0xD29 JUMP JUMPDEST PUSH2 0x84A JUMP JUMPDEST STOP JUMPDEST CALLVALUE DUP1 ISZERO PUSH2 0x24E JUMPI PUSH1 0x0 DUP1 REVERT JUMPDEST POP PUSH2 0x269 PUSH1 0x4 DUP1 CALLDATASIZE SUB DUP2 ADD SWAP1 PUSH2 0x264 SWAP2 SWAP1 PUSH2 0xCE0 JUMP JUMPDEST PUSH2 0x902 JUMP JUMPDEST PUSH1 0x40 MLOAD PUSH2 0x279 SWAP5 SWAP4 SWAP3 SWAP2 SWAP1 PUSH2 0xFB0 JUMP JUMPDEST PUSH1 0x40 MLOAD DUP1 SWAP2 SUB SWAP1 RETURN JUMPDEST PUSH2 0x28A PUSH2 0x9D0 JUMP JUMPDEST PUSH2 0x294 PUSH1 0x0 PUSH2 0xA4E JUMP JUMPDEST JUMP JUMPDEST PUSH2 0x29E PUSH2 0x9D0 JUMP JUMPDEST PUSH1 0x40 MLOAD DUP1 PUSH1 0x80 ADD PUSH1 0x40 MSTORE DUP1 DUP6 DUP2 MSTORE PUSH1 0x20 ADD DUP5 DUP2 MSTORE PUSH1 0x20 ADD DUP4 DUP2 MSTORE PUSH1 0x20 ADD DUP3 DUP2 MSTORE POP PUSH1 0x2 DUP6 PUSH1 0x40 MLOAD PUSH2 0x2CF SWAP2 SWAP1 PUSH2 0xF3F JUMP JUMPDEST SWAP1 DUP2 MSTORE PUSH1 0x20 ADD PUSH1 0x40 MLOAD DUP1 SWAP2 SUB SWAP1 KECCAK256 PUSH1 0x0 DUP3 ADD MLOAD DUP2 PUSH1 0x0 ADD SWAP1 DUP1 MLOAD SWAP1 PUSH1 0x20 ADD SWAP1 PUSH2 0x2F9 SWAP3 SWAP2 SWAP1 PUSH2 0xB1A JUMP JUMPDEST POP PUSH1 0x20 DUP3 ADD MLOAD DUP2 PUSH1 0x1 ADD SSTORE PUSH1 0x40 DUP3 ADD MLOAD DUP2 PUSH1 0x2 ADD SSTORE PUSH1 0x60 DUP3 ADD MLOAD DUP2 PUSH1 0x3 ADD SSTORE SWAP1 POP POP POP POP POP POP JUMP JUMPDEST DUP1 PUSH1 0x2 DUP4 PUSH1 0x40 MLOAD PUSH2 0x332 SWAP2 SWAP1 PUSH2 0xF3F JUMP JUMPDEST SWAP1 DUP2 MSTORE PUSH1 0x20 ADD PUSH1 0x40 MLOAD DUP1 SWAP2 SUB SWAP1 KECCAK256 PUSH1 0x1 ADD SLOAD PUSH2 0x34E SWAP2 SWAP1 PUSH2 0x112A JUMP JUMPDEST CALLVALUE EQ PUSH2 0x359 JUMPI PUSH1 0x0 DUP1 REVERT JUMPDEST DUP1 PUSH1 0x1 PUSH1 0x0 CALLER PUSH20 0xFFFFFFFFFFFFFFFFFFFFFFFFFFFFFFFFFFFFFFFF AND PUSH20 0xFFFFFFFFFFFFFFFFFFFFFFFFFFFFFFFFFFFFFFFF AND DUP2 MSTORE PUSH1 0x20 ADD SWAP1 DUP2 MSTORE PUSH1 0x20 ADD PUSH1 0x0 KECCAK256 DUP4 PUSH1 0x40 MLOAD PUSH2 0x3A7 SWAP2 SWAP1 PUSH2 0xF3F JUMP JUMPDEST SWAP1 DUP2 MSTORE PUSH1 0x20 ADD PUSH1 0x40 MLOAD DUP1 SWAP2 SUB SWAP1 KECCAK256 SLOAD PUSH2 0x3C0 SWAP2 SWAP1 PUSH2 0x10D4 JUMP JUMPDEST PUSH1 0x1 PUSH1 0x0 CALLER PUSH20 0xFFFFFFFFFFFFFFFFFFFFFFFFFFFFFFFFFFFFFFFF AND PUSH20 0xFFFFFFFFFFFFFFFFFFFFFFFFFFFFFFFFFFFFFFFF AND DUP2 MSTORE PUSH1 0x20 ADD SWAP1 DUP2 MSTORE PUSH1 0x20 ADD PUSH1 0x0 KECCAK256 DUP4 PUSH1 0x40 MLOAD PUSH2 0x40D SWAP2 SWAP1 PUSH2 0xF3F JUMP JUMPDEST SWAP1 DUP2 MSTORE PUSH1 0x20 ADD PUSH1 0x40 MLOAD DUP1 SWAP2 SUB SWAP1 KECCAK256 DUP2 SWAP1 SSTORE POP DUP1 PUSH1 0x2 DUP4 PUSH1 0x40 MLOAD PUSH2 0x430 SWAP2 SWAP1 PUSH2 0xF3F JUMP JUMPDEST SWAP1 DUP2 MSTORE PUSH1 0x20 ADD PUSH1 0x40 MLOAD DUP1 SWAP2 SUB SWAP1 KECCAK256 PUSH1 0x3 ADD SLOAD PUSH2 0x44C SWAP2 SWAP1 PUSH2 0x1184 JUMP JUMPDEST PUSH1 0x2 DUP4 PUSH1 0x40 MLOAD PUSH2 0x45C SWAP2 SWAP1 PUSH2 0xF3F JUMP JUMPDEST SWAP1 DUP2 MSTORE PUSH1 0x20 ADD PUSH1 0x40 MLOAD DUP1 SWAP2 SUB SWAP1 KECCAK256 PUSH1 0x3 ADD DUP2 SWAP1 SSTORE POP POP POP JUMP JUMPDEST PUSH1 0x0 DUP1 PUSH1 0x0 SWAP1 SLOAD SWAP1 PUSH2 0x100 EXP SWAP1 DIV PUSH20 0xFFFFFFFFFFFFFFFFFFFFFFFFFFFFFFFFFFFFFFFF AND SWAP1 POP SWAP1 JUMP JUMPDEST PUSH1 0x1 PUSH1 0x20 MSTORE DUP2 PUSH1 0x0 MSTORE PUSH1 0x40 PUSH1 0x0 KECCAK256 DUP2 DUP1 MLOAD PUSH1 0x20 DUP2 ADD DUP3 ADD DUP1 MLOAD DUP5 DUP3 MSTORE PUSH1 0x20 DUP4 ADD PUSH1 0x20 DUP6 ADD KECCAK256 DUP2 DUP4 MSTORE DUP1 SWAP6 POP POP POP POP POP POP PUSH1 0x0 SWAP2 POP SWAP2 POP POP SLOAD DUP2 JUMP JUMPDEST PUSH2 0x4E1 PUSH2 0x9D0 JUMP JUMPDEST CALLER PUSH20 0xFFFFFFFFFFFFFFFFFFFFFFFFFFFFFFFFFFFFFFFF AND PUSH2 0x8FC SELFBALANCE SWAP1 DUP2 ISZERO MUL SWAP1 PUSH1 0x40 MLOAD PUSH1 0x0 PUSH1 0x40 MLOAD DUP1 DUP4 SUB DUP2 DUP6 DUP9 DUP9 CALL SWAP4 POP POP POP POP ISZERO DUP1 ISZERO PUSH2 0x527 JUMPI RETURNDATASIZE PUSH1 0x0 DUP1 RETURNDATACOPY RETURNDATASIZE PUSH1 0x0 REVERT JUMPDEST POP JUMP JUMPDEST PUSH2 0x532 PUSH2 0x9D0 JUMP JUMPDEST DUP1 PUSH1 0x2 DUP4 PUSH1 0x40 MLOAD PUSH2 0x543 SWAP2 SWAP1 PUSH2 0xF3F JUMP JUMPDEST SWAP1 DUP2 MSTORE PUSH1 0x20 ADD PUSH1 0x40 MLOAD DUP1 SWAP2 SUB SWAP1 KECCAK256 PUSH1 0x1 ADD DUP2 SWAP1 SSTORE POP POP POP JUMP JUMPDEST PUSH2 0x564 PUSH2 0x9D0 JUMP JUMPDEST PUSH1 0x40 MLOAD DUP1 PUSH1 0x80 ADD PUSH1 0x40 MSTORE DUP1 PUSH1 0x40 MLOAD DUP1 PUSH1 0x40 ADD PUSH1 0x40 MSTORE DUP1 PUSH1 0x4 DUP2 MSTORE PUSH1 0x20 ADD PUSH32 0x636F636100000000000000000000000000000000000000000000000000000000 DUP2 MSTORE POP DUP2 MSTORE PUSH1 0x20 ADD PUSH8 0xDE0B6B3A7640000 DUP2 MSTORE PUSH1 0x20 ADD PUSH1 0xF DUP2 MSTORE PUSH1 0x20 ADD PUSH1 0x5 DUP2 MSTORE POP PUSH1 0x2 PUSH1 0x40 MLOAD PUSH2 0x5D2 SWAP1 PUSH2 0xF80 JUMP JUMPDEST SWAP1 DUP2 MSTORE PUSH1 0x20 ADD PUSH1 0x40 MLOAD DUP1 SWAP2 SUB SWAP1 KECCAK256 PUSH1 0x0 DUP3 ADD MLOAD DUP2 PUSH1 0x0 ADD SWAP1 DUP1 MLOAD SWAP1 PUSH1 0x20 ADD SWAP1 PUSH2 0x5FC SWAP3 SWAP2 SWAP1 PUSH2 0xB1A JUMP JUMPDEST POP PUSH1 0x20 DUP3 ADD MLOAD DUP2 PUSH1 0x1 ADD SSTORE PUSH1 0x40 DUP3 ADD MLOAD DUP2 PUSH1 0x2 ADD SSTORE PUSH1 0x60 DUP3 ADD MLOAD DUP2 PUSH1 0x3 ADD SSTORE SWAP1 POP POP PUSH1 0x40 MLOAD DUP1 PUSH1 0x80 ADD PUSH1 0x40 MSTORE DUP1 PUSH1 0x40 MLOAD DUP1 PUSH1 0x40 ADD PUSH1 0x40 MSTORE DUP1 PUSH1 0x5 DUP2 MSTORE PUSH1 0x20 ADD PUSH32 0x66616E7461000000000000000000000000000000000000000000000000000000 DUP2 MSTORE POP DUP2 MSTORE PUSH1 0x20 ADD PUSH8 0xDE0B6B3A7640000 DUP2 MSTORE PUSH1 0x20 ADD PUSH1 0xF DUP2 MSTORE PUSH1 0x20 ADD PUSH1 0x5 DUP2 MSTORE POP PUSH1 0x2 PUSH1 0x40 MLOAD PUSH2 0x68C SWAP1 PUSH2 0xF56 JUMP JUMPDEST SWAP1 DUP2 MSTORE PUSH1 0x20 ADD PUSH1 0x40 MLOAD DUP1 SWAP2 SUB SWAP1 KECCAK256 PUSH1 0x0 DUP3 ADD MLOAD DUP2 PUSH1 0x0 ADD SWAP1 DUP1 MLOAD SWAP1 PUSH1 0x20 ADD SWAP1 PUSH2 0x6B6 SWAP3 SWAP2 SWAP1 PUSH2 0xB1A JUMP JUMPDEST POP PUSH1 0x20 DUP3 ADD MLOAD DUP2 PUSH1 0x1 ADD SSTORE PUSH1 0x40 DUP3 ADD MLOAD DUP2 PUSH1 0x2 ADD SSTORE PUSH1 0x60 DUP3 ADD MLOAD DUP2 PUSH1 0x3 ADD SSTORE SWAP1 POP POP PUSH1 0x40 MLOAD DUP1 PUSH1 0x80 ADD PUSH1 0x40 MSTORE DUP1 PUSH1 0x40 MLOAD DUP1 PUSH1 0x40 ADD PUSH1 0x40 MSTORE DUP1 PUSH1 0x7 DUP2 MSTORE PUSH1 0x20 ADD PUSH32 0x6963655F74656100000000000000000000000000000000000000000000000000 DUP2 MSTORE POP DUP2 MSTORE PUSH1 0x20 ADD PUSH8 0xDE0B6B3A7640000 DUP2 MSTORE PUSH1 0x20 ADD PUSH1 0xF DUP2 MSTORE PUSH1 0x20 ADD PUSH1 0x5 DUP2 MSTORE POP PUSH1 0x2 PUSH1 0x40 MLOAD PUSH2 0x746 SWAP1 PUSH2 0xF6B JUMP JUMPDEST SWAP1 DUP2 MSTORE PUSH1 0x20 ADD PUSH1 0x40 MLOAD DUP1 SWAP2 SUB SWAP1 KECCAK256 PUSH1 0x0 DUP3 ADD MLOAD DUP2 PUSH1 0x0 ADD SWAP1 DUP1 MLOAD SWAP1 PUSH1 0x20 ADD SWAP1 PUSH2 0x770 SWAP3 SWAP2 SWAP1 PUSH2 0xB1A JUMP JUMPDEST POP PUSH1 0x20 DUP3 ADD MLOAD DUP2 PUSH1 0x1 ADD SSTORE PUSH1 0x40 DUP3 ADD MLOAD DUP2 PUSH1 0x2 ADD SSTORE PUSH1 0x60 DUP3 ADD MLOAD DUP2 PUSH1 0x3 ADD SSTORE SWAP1 POP POP JUMP JUMPDEST PUSH2 0x79C PUSH2 0x9D0 JUMP JUMPDEST PUSH1 0x0 PUSH20 0xFFFFFFFFFFFFFFFFFFFFFFFFFFFFFFFFFFFFFFFF AND DUP2 PUSH20 0xFFFFFFFFFFFFFFFFFFFFFFFFFFFFFFFFFFFFFFFF AND EQ ISZERO PUSH2 0x80C JUMPI PUSH1 0x40 MLOAD PUSH32 0x8C379A000000000000000000000000000000000000000000000000000000000 DUP2 MSTORE PUSH1 0x4 ADD PUSH2 0x803 SWAP1 PUSH2 0xFFC JUMP JUMPDEST PUSH1 0x40 MLOAD DUP1 SWAP2 SUB SWAP1 REVERT JUMPDEST PUSH2 0x815 DUP2 PUSH2 0xA4E JUMP JUMPDEST POP JUMP JUMPDEST PUSH2 0x820 PUSH2 0x9D0 JUMP JUMPDEST DUP1 PUSH1 0x2 DUP4 PUSH1 0x40 MLOAD PUSH2 0x831 SWAP2 SWAP1 PUSH2 0xF3F JUMP JUMPDEST SWAP1 DUP2 MSTORE PUSH1 0x20 ADD PUSH1 0x40 MLOAD DUP1 SWAP2 SUB SWAP1 KECCAK256 PUSH1 0x2 ADD DUP2 SWAP1 SSTORE POP POP POP JUMP JUMPDEST PUSH2 0x852 PUSH2 0x9D0 JUMP JUMPDEST PUSH1 0x2 DUP3 PUSH1 0x40 MLOAD PUSH2 0x862 SWAP2 SWAP1 PUSH2 0xF3F JUMP JUMPDEST SWAP1 DUP2 MSTORE PUSH1 0x20 ADD PUSH1 0x40 MLOAD DUP1 SWAP2 SUB SWAP1 KECCAK256 PUSH1 0x2 ADD SLOAD DUP2 PUSH1 0x2 DUP5 PUSH1 0x40 MLOAD PUSH2 0x885 SWAP2 SWAP1 PUSH2 0xF3F JUMP JUMPDEST SWAP1 DUP2 MSTORE PUSH1 0x20 ADD PUSH1 0x40 MLOAD DUP1 SWAP2 SUB SWAP1 KECCAK256 PUSH1 0x3 ADD SLOAD PUSH2 0x8A1 SWAP2 SWAP1 PUSH2 0x10D4 JUMP JUMPDEST GT ISZERO PUSH2 0x8AC JUMPI PUSH1 0x0 DUP1 REVERT JUMPDEST DUP1 PUSH1 0x2 DUP4 PUSH1 0x40 MLOAD PUSH2 0x8BD SWAP2 SWAP1 PUSH2 0xF3F JUMP JUMPDEST SWAP1 DUP2 MSTORE PUSH1 0x20 ADD PUSH1 0x40 MLOAD DUP1 SWAP2 SUB SWAP1 KECCAK256 PUSH1 0x3 ADD SLOAD PUSH2 0x8D9 SWAP2 SWAP1 PUSH2 0x10D4 JUMP JUMPDEST PUSH1 0x2 DUP4 PUSH1 0x40 MLOAD PUSH2 0x8E9 SWAP2 SWAP1 PUSH2 0xF3F JUMP JUMPDEST SWAP1 DUP2 MSTORE PUSH1 0x20 ADD PUSH1 0x40 MLOAD DUP1 SWAP2 SUB SWAP1 KECCAK256 PUSH1 0x3 ADD DUP2 SWAP1 SSTORE POP POP POP JUMP JUMPDEST PUSH1 0x2 DUP2 DUP1 MLOAD PUSH1 0x20 DUP2 ADD DUP3 ADD DUP1 MLOAD DUP5 DUP3 MSTORE PUSH1 0x20 DUP4 ADD PUSH1 0x20 DUP6 ADD KECCAK256 DUP2 DUP4 MSTORE DUP1 SWAP6 POP POP POP POP POP POP PUSH1 0x0 SWAP2 POP SWAP1 POP DUP1 PUSH1 0x0 ADD DUP1 SLOAD PUSH2 0x93B SWAP1 PUSH2 0x1236 JUMP JUMPDEST DUP1 PUSH1 0x1F ADD PUSH1 0x20 DUP1 SWAP2 DIV MUL PUSH1 0x20 ADD PUSH1 0x40 MLOAD SWAP1 DUP2 ADD PUSH1 0x40 MSTORE DUP1 SWAP3 SWAP2 SWAP1 DUP2 DUP2 MSTORE PUSH1 0x20 ADD DUP3 DUP1 SLOAD PUSH2 0x967 SWAP1 PUSH2 0x1236 JUMP JUMPDEST DUP1 ISZERO PUSH2 0x9B4 JUMPI DUP1 PUSH1 0x1F LT PUSH2 0x989 JUMPI PUSH2 0x100 DUP1 DUP4 SLOAD DIV MUL DUP4 MSTORE SWAP2 PUSH1 0x20 ADD SWAP2 PUSH2 0x9B4 JUMP JUMPDEST DUP3 ADD SWAP2 SWAP1 PUSH1 0x0 MSTORE PUSH1 0x20 PUSH1 0x0 KECCAK256 SWAP1 JUMPDEST DUP2 SLOAD DUP2 MSTORE SWAP1 PUSH1 0x1 ADD SWAP1 PUSH1 0x20 ADD DUP1 DUP4 GT PUSH2 0x997 JUMPI DUP3 SWAP1 SUB PUSH1 0x1F AND DUP3 ADD SWAP2 JUMPDEST POP POP POP POP POP SWAP1 DUP1 PUSH1 0x1 ADD SLOAD SWAP1 DUP1 PUSH1 0x2 ADD SLOAD SWAP1 DUP1 PUSH1 0x3 ADD SLOAD SWAP1 POP DUP5 JUMP JUMPDEST PUSH2 0x9D8 PUSH2 0xB12 JUMP JUMPDEST PUSH20 0xFFFFFFFFFFFFFFFFFFFFFFFFFFFFFFFFFFFFFFFF AND PUSH2 0x9F6 PUSH2 0x475 JUMP JUMPDEST PUSH20 0xFFFFFFFFFFFFFFFFFFFFFFFFFFFFFFFFFFFFFFFF AND EQ PUSH2 0xA4C JUMPI PUSH1 0x40 MLOAD PUSH32 0x8C379A000000000000000000000000000000000000000000000000000000000 DUP2 MSTORE PUSH1 0x4 ADD PUSH2 0xA43 SWAP1 PUSH2 0x101C JUMP JUMPDEST PUSH1 0x40 MLOAD DUP1 SWAP2 SUB SWAP1 REVERT JUMPDEST JUMP JUMPDEST PUSH1 0x0 DUP1 PUSH1 0x0 SWAP1 SLOAD SWAP1 PUSH2 0x100 EXP SWAP1 DIV PUSH20 0xFFFFFFFFFFFFFFFFFFFFFFFFFFFFFFFFFFFFFFFF AND SWAP1 POP DUP2 PUSH1 0x0 DUP1 PUSH2 0x100 EXP DUP2 SLOAD DUP2 PUSH20 0xFFFFFFFFFFFFFFFFFFFFFFFFFFFFFFFFFFFFFFFF MUL NOT AND SWAP1 DUP4 PUSH20 0xFFFFFFFFFFFFFFFFFFFFFFFFFFFFFFFFFFFFFFFF AND MUL OR SWAP1 SSTORE POP DUP2 PUSH20 0xFFFFFFFFFFFFFFFFFFFFFFFFFFFFFFFFFFFFFFFF AND DUP2 PUSH20 0xFFFFFFFFFFFFFFFFFFFFFFFFFFFFFFFFFFFFFFFF AND PUSH32 0x8BE0079C531659141344CD1FD0A4F28419497F9722A3DAAFE3B4186F6B6457E0 PUSH1 0x40 MLOAD PUSH1 0x40 MLOAD DUP1 SWAP2 SUB SWAP1 LOG3 POP POP JUMP JUMPDEST PUSH1 0x0 CALLER SWAP1 POP SWAP1 JUMP JUMPDEST DUP3 DUP1 SLOAD PUSH2 0xB26 SWAP1 PUSH2 0x1236 JUMP JUMPDEST SWAP1 PUSH1 0x0 MSTORE PUSH1 0x20 PUSH1 0x0 KECCAK256 SWAP1 PUSH1 0x1F ADD PUSH1 0x20 SWAP1 DIV DUP2 ADD SWAP3 DUP3 PUSH2 0xB48 JUMPI PUSH1 0x0 DUP6 SSTORE PUSH2 0xB8F JUMP JUMPDEST DUP3 PUSH1 0x1F LT PUSH2 0xB61 JUMPI DUP1 MLOAD PUSH1 0xFF NOT AND DUP4 DUP1 ADD OR DUP6 SSTORE PUSH2 0xB8F JUMP JUMPDEST DUP3 DUP1 ADD PUSH1 0x1 ADD DUP6 SSTORE DUP3 ISZERO PUSH2 0xB8F JUMPI SWAP2 DUP3 ADD JUMPDEST DUP3 DUP2 GT ISZERO PUSH2 0xB8E JUMPI DUP3 MLOAD DUP3 SSTORE SWAP2 PUSH1 0x20 ADD SWAP2 SWAP1 PUSH1 0x1 ADD SWAP1 PUSH2 0xB73 JUMP JUMPDEST JUMPDEST POP SWAP1 POP PUSH2 0xB9C SWAP2 SWAP1 PUSH2 0xBA0 JUMP JUMPDEST POP SWAP1 JUMP JUMPDEST JUMPDEST DUP1 DUP3 GT ISZERO PUSH2 0xBB9 JUMPI PUSH1 0x0 DUP2 PUSH1 0x0 SWAP1 SSTORE POP PUSH1 0x1 ADD PUSH2 0xBA1 JUMP JUMPDEST POP SWAP1 JUMP JUMPDEST PUSH1 0x0 PUSH2 0xBD0 PUSH2 0xBCB DUP5 PUSH2 0x107C JUMP JUMPDEST PUSH2 0x1057 JUMP JUMPDEST SWAP1 POP DUP3 DUP2 MSTORE PUSH1 0x20 DUP2 ADD DUP5 DUP5 DUP5 ADD GT ISZERO PUSH2 0xBEC JUMPI PUSH2 0xBEB PUSH2 0x132B JUMP JUMPDEST JUMPDEST PUSH2 0xBF7 DUP5 DUP3 DUP6 PUSH2 0x11F4 JUMP JUMPDEST POP SWAP4 SWAP3 POP POP POP JUMP JUMPDEST PUSH1 0x0 DUP2 CALLDATALOAD SWAP1 POP PUSH2 0xC0E DUP2 PUSH2 0x143E JUMP JUMPDEST SWAP3 SWAP2 POP POP JUMP JUMPDEST PUSH1 0x0 DUP3 PUSH1 0x1F DUP4 ADD SLT PUSH2 0xC29 JUMPI PUSH2 0xC28 PUSH2 0x1326 JUMP JUMPDEST JUMPDEST DUP2 CALLDATALOAD PUSH2 0xC39 DUP5 DUP3 PUSH1 0x20 DUP7 ADD PUSH2 0xBBD JUMP JUMPDEST SWAP2 POP POP SWAP3 SWAP2 POP POP JUMP JUMPDEST PUSH1 0x0 DUP2 CALLDATALOAD SWAP1 POP PUSH2 0xC51 DUP2 PUSH2 0x1455 JUMP JUMPDEST SWAP3 SWAP2 POP POP JUMP JUMPDEST PUSH1 0x0 PUSH1 0x20 DUP3 DUP5 SUB SLT ISZERO PUSH2 0xC6D JUMPI PUSH2 0xC6C PUSH2 0x1335 JUMP JUMPDEST JUMPDEST PUSH1 0x0 PUSH2 0xC7B DUP5 DUP3 DUP6 ADD PUSH2 0xBFF JUMP JUMPDEST SWAP2 POP POP SWAP3 SWAP2 POP POP JUMP JUMPDEST PUSH1 0x0 DUP1 PUSH1 0x40 DUP4 DUP6 SUB SLT ISZERO PUSH2 0xC9B JUMPI PUSH2 0xC9A PUSH2 0x1335 JUMP JUMPDEST JUMPDEST PUSH1 0x0 PUSH2 0xCA9 DUP6 DUP3 DUP7 ADD PUSH2 0xBFF JUMP JUMPDEST SWAP3 POP POP PUSH1 0x20 DUP4 ADD CALLDATALOAD PUSH8 0xFFFFFFFFFFFFFFFF DUP2 GT ISZERO PUSH2 0xCCA JUMPI PUSH2 0xCC9 PUSH2 0x1330 JUMP JUMPDEST JUMPDEST PUSH2 0xCD6 DUP6 DUP3 DUP7 ADD PUSH2 0xC14 JUMP JUMPDEST SWAP2 POP POP SWAP3 POP SWAP3 SWAP1 POP JUMP JUMPDEST PUSH1 0x0 PUSH1 0x20 DUP3 DUP5 SUB SLT ISZERO PUSH2 0xCF6 JUMPI PUSH2 0xCF5 PUSH2 0x1335 JUMP JUMPDEST JUMPDEST PUSH1 0x0 DUP3 ADD CALLDATALOAD PUSH8 0xFFFFFFFFFFFFFFFF DUP2 GT ISZERO PUSH2 0xD14 JUMPI PUSH2 0xD13 PUSH2 0x1330 JUMP JUMPDEST JUMPDEST PUSH2 0xD20 DUP5 DUP3 DUP6 ADD PUSH2 0xC14 JUMP JUMPDEST SWAP2 POP POP SWAP3 SWAP2 POP POP JUMP JUMPDEST PUSH1 0x0 DUP1 PUSH1 0x40 DUP4 DUP6 SUB SLT ISZERO PUSH2 0xD40 JUMPI PUSH2 0xD3F PUSH2 0x1335 JUMP JUMPDEST JUMPDEST PUSH1 0x0 DUP4 ADD CALLDATALOAD PUSH8 0xFFFFFFFFFFFFFFFF DUP2 GT ISZERO PUSH2 0xD5E JUMPI PUSH2 0xD5D PUSH2 0x1330 JUMP JUMPDEST JUMPDEST PUSH2 0xD6A DUP6 DUP3 DUP7 ADD PUSH2 0xC14 JUMP JUMPDEST SWAP3 POP POP PUSH1 0x20 PUSH2 0xD7B DUP6 DUP3 DUP7 ADD PUSH2 0xC42 JUMP JUMPDEST SWAP2 POP POP SWAP3 POP SWAP3 SWAP1 POP JUMP JUMPDEST PUSH1 0x0 DUP1 PUSH1 0x0 DUP1 PUSH1 0x80 DUP6 DUP8 SUB SLT ISZERO PUSH2 0xD9F JUMPI PUSH2 0xD9E PUSH2 0x1335 JUMP JUMPDEST JUMPDEST PUSH1 0x0 DUP6 ADD CALLDATALOAD PUSH8 0xFFFFFFFFFFFFFFFF DUP2 GT ISZERO PUSH2 0xDBD JUMPI PUSH2 0xDBC PUSH2 0x1330 JUMP JUMPDEST JUMPDEST PUSH2 0xDC9 DUP8 DUP3 DUP9 ADD PUSH2 0xC14 JUMP JUMPDEST SWAP5 POP POP PUSH1 0x20 PUSH2 0xDDA DUP8 DUP3 DUP9 ADD PUSH2 0xC42 JUMP JUMPDEST SWAP4 POP POP PUSH1 0x40 PUSH2 0xDEB DUP8 DUP3 DUP9 ADD PUSH2 0xC42 JUMP JUMPDEST SWAP3 POP POP PUSH1 0x60 PUSH2 0xDFC DUP8 DUP3 DUP9 ADD PUSH2 0xC42 JUMP JUMPDEST SWAP2 POP POP SWAP3 SWAP6 SWAP2 SWAP5 POP SWAP3 POP JUMP JUMPDEST PUSH2 0xE11 DUP2 PUSH2 0x11B8 JUMP JUMPDEST DUP3 MSTORE POP POP JUMP JUMPDEST PUSH1 0x0 PUSH2 0xE22 DUP3 PUSH2 0x10AD JUMP JUMPDEST PUSH2 0xE2C DUP2 DUP6 PUSH2 0x10B8 JUMP JUMPDEST SWAP4 POP PUSH2 0xE3C DUP2 DUP6 PUSH1 0x20 DUP7 ADD PUSH2 0x1203 JUMP JUMPDEST PUSH2 0xE45 DUP2 PUSH2 0x133A JUMP JUMPDEST DUP5 ADD SWAP2 POP POP SWAP3 SWAP2 POP POP JUMP JUMPDEST PUSH1 0x0 PUSH2 0xE5B DUP3 PUSH2 0x10AD JUMP JUMPDEST PUSH2 0xE65 DUP2 DUP6 PUSH2 0x10C9 JUMP JUMPDEST SWAP4 POP PUSH2 0xE75 DUP2 DUP6 PUSH1 0x20 DUP7 ADD PUSH2 0x1203 JUMP JUMPDEST DUP1 DUP5 ADD SWAP2 POP POP SWAP3 SWAP2 POP POP JUMP JUMPDEST PUSH1 0x0 PUSH2 0xE8E PUSH1 0x26 DUP4 PUSH2 0x10B8 JUMP JUMPDEST SWAP2 POP PUSH2 0xE99 DUP3 PUSH2 0x134B JUMP JUMPDEST PUSH1 0x40 DUP3 ADD SWAP1 POP SWAP2 SWAP1 POP JUMP JUMPDEST PUSH1 0x0 PUSH2 0xEB1 PUSH1 0x5 DUP4 PUSH2 0x10C9 JUMP JUMPDEST SWAP2 POP PUSH2 0xEBC DUP3 PUSH2 0x139A JUMP JUMPDEST PUSH1 0x5 DUP3 ADD SWAP1 POP SWAP2 SWAP1 POP JUMP JUMPDEST PUSH1 0x0 PUSH2 0xED4 PUSH1 0x20 DUP4 PUSH2 0x10B8 JUMP JUMPDEST SWAP2 POP PUSH2 0xEDF DUP3 PUSH2 0x13C3 JUMP JUMPDEST PUSH1 0x20 DUP3 ADD SWAP1 POP SWAP2 SWAP1 POP JUMP JUMPDEST PUSH1 0x0 PUSH2 0xEF7 PUSH1 0x7 DUP4 PUSH2 0x10C9 JUMP JUMPDEST SWAP2 POP PUSH2 0xF02 DUP3 PUSH2 0x13EC JUMP JUMPDEST PUSH1 0x7 DUP3 ADD SWAP1 POP SWAP2 SWAP1 POP JUMP JUMPDEST PUSH1 0x0 PUSH2 0xF1A PUSH1 0x4 DUP4 PUSH2 0x10C9 JUMP JUMPDEST SWAP2 POP PUSH2 0xF25 DUP3 PUSH2 0x1415 JUMP JUMPDEST PUSH1 0x4 DUP3 ADD SWAP1 POP SWAP2 SWAP1 POP JUMP JUMPDEST PUSH2 0xF39 DUP2 PUSH2 0x11EA JUMP JUMPDEST DUP3 MSTORE POP POP JUMP JUMPDEST PUSH1 0x0 PUSH2 0xF4B DUP3 DUP5 PUSH2 0xE50 JUMP JUMPDEST SWAP2 POP DUP2 SWAP1 POP SWAP3 SWAP2 POP POP JUMP JUMPDEST PUSH1 0x0 PUSH2 0xF61 DUP3 PUSH2 0xEA4 JUMP JUMPDEST SWAP2 POP DUP2 SWAP1 POP SWAP2 SWAP1 POP JUMP JUMPDEST PUSH1 0x0 PUSH2 0xF76 DUP3 PUSH2 0xEEA JUMP JUMPDEST SWAP2 POP DUP2 SWAP1 POP SWAP2 SWAP1 POP JUMP JUMPDEST PUSH1 0x0 PUSH2 0xF8B DUP3 PUSH2 0xF0D JUMP JUMPDEST SWAP2 POP DUP2 SWAP1 POP SWAP2 SWAP1 POP JUMP JUMPDEST PUSH1 0x0 PUSH1 0x20 DUP3 ADD SWAP1 POP PUSH2 0xFAA PUSH1 0x0 DUP4 ADD DUP5 PUSH2 0xE08 JUMP JUMPDEST SWAP3 SWAP2 POP POP JUMP JUMPDEST PUSH1 0x0 PUSH1 0x80 DUP3 ADD SWAP1 POP DUP2 DUP2 SUB PUSH1 0x0 DUP4 ADD MSTORE PUSH2 0xFCA DUP2 DUP8 PUSH2 0xE17 JUMP JUMPDEST SWAP1 POP PUSH2 0xFD9 PUSH1 0x20 DUP4 ADD DUP7 PUSH2 0xF30 JUMP JUMPDEST PUSH2 0xFE6 PUSH1 0x40 DUP4 ADD DUP6 PUSH2 0xF30 JUMP JUMPDEST PUSH2 0xFF3 PUSH1 0x60 DUP4 ADD DUP5 PUSH2 0xF30 JUMP JUMPDEST SWAP6 SWAP5 POP POP POP POP POP JUMP JUMPDEST PUSH1 0x0 PUSH1 0x20 DUP3 ADD SWAP1 POP DUP2 DUP2 SUB PUSH1 0x0 DUP4 ADD MSTORE PUSH2 0x1015 DUP2 PUSH2 0xE81 JUMP JUMPDEST SWAP1 POP SWAP2 SWAP1 POP JUMP JUMPDEST PUSH1 0x0 PUSH1 0x20 DUP3 ADD SWAP1 POP DUP2 DUP2 SUB PUSH1 0x0 DUP4 ADD MSTORE PUSH2 0x1035 DUP2 PUSH2 0xEC7 JUMP JUMPDEST SWAP1 POP SWAP2 SWAP1 POP JUMP JUMPDEST PUSH1 0x0 PUSH1 0x20 DUP3 ADD SWAP1 POP PUSH2 0x1051 PUSH1 0x0 DUP4 ADD DUP5 PUSH2 0xF30 JUMP JUMPDEST SWAP3 SWAP2 POP POP JUMP JUMPDEST PUSH1 0x0 PUSH2 0x1061 PUSH2 0x1072 JUMP JUMPDEST SWAP1 POP PUSH2 0x106D DUP3 DUP3 PUSH2 0x1268 JUMP JUMPDEST SWAP2 SWAP1 POP JUMP JUMPDEST PUSH1 0x0 PUSH1 0x40 MLOAD SWAP1 POP SWAP1 JUMP JUMPDEST PUSH1 0x0 PUSH8 0xFFFFFFFFFFFFFFFF DUP3 GT ISZERO PUSH2 0x1097 JUMPI PUSH2 0x1096 PUSH2 0x12F7 JUMP JUMPDEST JUMPDEST PUSH2 0x10A0 DUP3 PUSH2 0x133A JUMP JUMPDEST SWAP1 POP PUSH1 0x20 DUP2 ADD SWAP1 POP SWAP2 SWAP1 POP JUMP JUMPDEST PUSH1 0x0 DUP2 MLOAD SWAP1 POP SWAP2 SWAP1 POP JUMP JUMPDEST PUSH1 0x0 DUP3 DUP3 MSTORE PUSH1 0x20 DUP3 ADD SWAP1 POP SWAP3 SWAP2 POP POP JUMP JUMPDEST PUSH1 0x0 DUP2 SWAP1 POP SWAP3 SWAP2 POP POP JUMP JUMPDEST PUSH1 0x0 PUSH2 0x10DF DUP3 PUSH2 0x11EA JUMP JUMPDEST SWAP2 POP PUSH2 0x10EA DUP4 PUSH2 0x11EA JUMP JUMPDEST SWAP3 POP DUP3 PUSH32 0xFFFFFFFFFFFFFFFFFFFFFFFFFFFFFFFFFFFFFFFFFFFFFFFFFFFFFFFFFFFFFFFF SUB DUP3 GT ISZERO PUSH2 0x111F JUMPI PUSH2 0x111E PUSH2 0x1299 JUMP JUMPDEST JUMPDEST DUP3 DUP3 ADD SWAP1 POP SWAP3 SWAP2 POP POP JUMP JUMPDEST PUSH1 0x0 PUSH2 0x1135 DUP3 PUSH2 0x11EA JUMP JUMPDEST SWAP2 POP PUSH2 0x1140 DUP4 PUSH2 0x11EA JUMP JUMPDEST SWAP3 POP DUP2 PUSH32 0xFFFFFFFFFFFFFFFFFFFFFFFFFFFFFFFFFFFFFFFFFFFFFFFFFFFFFFFFFFFFFFFF DIV DUP4 GT DUP3 ISZERO ISZERO AND ISZERO PUSH2 0x1179 JUMPI PUSH2 0x1178 PUSH2 0x1299 JUMP JUMPDEST JUMPDEST DUP3 DUP3 MUL SWAP1 POP SWAP3 SWAP2 POP POP JUMP JUMPDEST PUSH1 0x0 PUSH2 0x118F DUP3 PUSH2 0x11EA JUMP JUMPDEST SWAP2 POP PUSH2 0x119A DUP4 PUSH2 0x11EA JUMP JUMPDEST SWAP3 POP DUP3 DUP3 LT ISZERO PUSH2 0x11AD JUMPI PUSH2 0x11AC PUSH2 0x1299 JUMP JUMPDEST JUMPDEST DUP3 DUP3 SUB SWAP1 POP SWAP3 SWAP2 POP POP JUMP JUMPDEST PUSH1 0x0 PUSH2 0x11C3 DUP3 PUSH2 0x11CA JUMP JUMPDEST SWAP1 POP SWAP2 SWAP1 POP JUMP JUMPDEST PUSH1 0x0 PUSH20 0xFFFFFFFFFFFFFFFFFFFFFFFFFFFFFFFFFFFFFFFF DUP3 AND SWAP1 POP SWAP2 SWAP1 POP JUMP JUMPDEST PUSH1 0x0 DUP2 SWAP1 POP SWAP2 SWAP1 POP JUMP JUMPDEST DUP3 DUP2 DUP4 CALLDATACOPY PUSH1 0x0 DUP4 DUP4 ADD MSTORE POP POP POP JUMP JUMPDEST PUSH1 0x0 JUMPDEST DUP4 DUP2 LT ISZERO PUSH2 0x1221 JUMPI DUP1 DUP3 ADD MLOAD DUP2 DUP5 ADD MSTORE PUSH1 0x20 DUP2 ADD SWAP1 POP PUSH2 0x1206 JUMP JUMPDEST DUP4 DUP2 GT ISZERO PUSH2 0x1230 JUMPI PUSH1 0x0 DUP5 DUP5 ADD MSTORE JUMPDEST POP POP POP POP JUMP JUMPDEST PUSH1 0x0 PUSH1 0x2 DUP3 DIV SWAP1 POP PUSH1 0x1 DUP3 AND DUP1 PUSH2 0x124E JUMPI PUSH1 0x7F DUP3 AND SWAP2 POP JUMPDEST PUSH1 0x20 DUP3 LT DUP2 EQ ISZERO PUSH2 0x1262 JUMPI PUSH2 0x1261 PUSH2 0x12C8 JUMP JUMPDEST JUMPDEST POP SWAP2 SWAP1 POP JUMP JUMPDEST PUSH2 0x1271 DUP3 PUSH2 0x133A JUMP JUMPDEST DUP2 ADD DUP2 DUP2 LT PUSH8 0xFFFFFFFFFFFFFFFF DUP3 GT OR ISZERO PUSH2 0x1290 JUMPI PUSH2 0x128F PUSH2 0x12F7 JUMP JUMPDEST JUMPDEST DUP1 PUSH1 0x40 MSTORE POP POP POP JUMP JUMPDEST PUSH32 0x4E487B7100000000000000000000000000000000000000000000000000000000 PUSH1 0x0 MSTORE PUSH1 0x11 PUSH1 0x4 MSTORE PUSH1 0x24 PUSH1 0x0 REVERT JUMPDEST PUSH32 0x4E487B7100000000000000000000000000000000000000000000000000000000 PUSH1 0x0 MSTORE PUSH1 0x22 PUSH1 0x4 MSTORE PUSH1 0x24 PUSH1 0x0 REVERT JUMPDEST PUSH32 0x4E487B7100000000000000000000000000000000000000000000000000000000 PUSH1 0x0 MSTORE PUSH1 0x41 PUSH1 0x4 MSTORE PUSH1 0x24 PUSH1 0x0 REVERT JUMPDEST PUSH1 0x0 DUP1 REVERT JUMPDEST PUSH1 0x0 DUP1 REVERT JUMPDEST PUSH1 0x0 DUP1 REVERT JUMPDEST PUSH1 0x0 DUP1 REVERT JUMPDEST PUSH1 0x0 PUSH1 0x1F NOT PUSH1 0x1F DUP4 ADD AND SWAP1 POP SWAP2 SWAP1 POP JUMP JUMPDEST PUSH32 0x4F776E61626C653A206E6577206F776E657220697320746865207A65726F2061 PUSH1 0x0 DUP3 ADD MSTORE PUSH32 0x6464726573730000000000000000000000000000000000000000000000000000 PUSH1 0x20 DUP3 ADD MSTORE POP JUMP JUMPDEST PUSH32 0x66616E7461000000000000000000000000000000000000000000000000000000 PUSH1 0x0 DUP3 ADD MSTORE POP JUMP JUMPDEST PUSH32 0x4F776E61626C653A2063616C6C6572206973206E6F7420746865206F776E6572 PUSH1 0x0 DUP3 ADD MSTORE POP JUMP JUMPDEST PUSH32 0x6963655F74656100000000000000000000000000000000000000000000000000 PUSH1 0x0 DUP3 ADD MSTORE POP JUMP JUMPDEST PUSH32 0x636F636100000000000000000000000000000000000000000000000000000000 PUSH1 0x0 DUP3 ADD MSTORE POP JUMP JUMPDEST PUSH2 0x1447 DUP2 PUSH2 0x11B8 JUMP JUMPDEST DUP2 EQ PUSH2 0x1452 JUMPI PUSH1 0x0 DUP1 REVERT JUMPDEST POP JUMP JUMPDEST PUSH2 0x145E DUP2 PUSH2 0x11EA JUMP JUMPDEST DUP2 EQ PUSH2 0x1469 JUMPI PUSH1 0x0 DUP1 REVERT JUMPDEST POP JUMP INVALID LOG2 PUSH5 0x6970667358 0x22 SLT KECCAK256 CHAINID 0x1F 0xD4 0xC9 BASEFEE PUSH31 0x99C87168E8EAD432DBACA5ECF5880551752990709BA46D99452664736F6C63 NUMBER STOP ADDMOD SMOD STOP CALLER "
		},
		"gasEstimates": {
			"creation": {
				"codeDepositCost": "1056400",
				"executionCost": "infinite",
				"totalCost": "infinite"
			},
			"external": {
				"buyItem(string,uint256)": "infinite",
				"createBaseItem()": "infinite",
				"createItem(string,uint256,uint256,uint256)": "infinite",
				"owner()": "2589",
				"personnalInventory(address,string)": "infinite",
				"reloadItem(string,uint256)": "infinite",
				"renounceOwnership()": "30399",
				"stock(string)": "infinite",
				"transferOwnership(address)": "30791",
				"updateItemMaxQty(string,uint256)": "infinite",
				"updateItemPrice(string,uint256)": "infinite",
				"withdrawDistributor()": "infinite"
			}
		},
		"methodIdentifiers": {
			"buyItem(string,uint256)": "891a2f31",
			"createBaseItem()": "f2678dfa",
			"createItem(string,uint256,uint256,uint256)": "79c5cb1c",
			"owner()": "8da5cb5b",
			"personnalInventory(address,string)": "dfd47f0d",
			"reloadItem(string,uint256)": "f715272e",
			"renounceOwnership()": "715018a6",
			"stock(string)": "fd9908e3",
			"transferOwnership(address)": "f2fde38b",
			"updateItemMaxQty(string,uint256)": "f3eb3a60",
			"updateItemPrice(string,uint256)": "e7fd72ee",
			"withdrawDistributor()": "e08d490b"
		}
	},
	"abi": [
		{
			"anonymous": false,
			"inputs": [
				{
					"indexed": true,
					"internalType": "address",
					"name": "previousOwner",
					"type": "address"
				},
				{
					"indexed": true,
					"internalType": "address",
					"name": "newOwner",
					"type": "address"
				}
			],
			"name": "OwnershipTransferred",
			"type": "event"
		},
		{
			"inputs": [
				{
					"internalType": "string",
					"name": "_item",
					"type": "string"
				},
				{
					"internalType": "uint256",
					"name": "_qty",
					"type": "uint256"
				}
			],
			"name": "buyItem",
			"outputs": [],
			"stateMutability": "payable",
			"type": "function"
		},
		{
			"inputs": [],
			"name": "createBaseItem",
			"outputs": [],
			"stateMutability": "nonpayable",
			"type": "function"
		},
		{
			"inputs": [
				{
					"internalType": "string",
					"name": "_name",
					"type": "string"
				},
				{
					"internalType": "uint256",
					"name": "_price",
					"type": "uint256"
				},
				{
					"internalType": "uint256",
					"name": "_limit",
					"type": "uint256"
				},
				{
					"internalType": "uint256",
					"name": "_initialQty",
					"type": "uint256"
				}
			],
			"name": "createItem",
			"outputs": [],
			"stateMutability": "nonpayable",
			"type": "function"
		},
		{
			"inputs": [],
			"name": "owner",
			"outputs": [
				{
					"internalType": "address",
					"name": "",
					"type": "address"
				}
			],
			"stateMutability": "view",
			"type": "function"
		},
		{
			"inputs": [
				{
					"internalType": "address",
					"name": "",
					"type": "address"
				},
				{
					"internalType": "string",
					"name": "",
					"type": "string"
				}
			],
			"name": "personnalInventory",
			"outputs": [
				{
					"internalType": "uint256",
					"name": "",
					"type": "uint256"
				}
			],
			"stateMutability": "view",
			"type": "function"
		},
		{
			"inputs": [
				{
					"internalType": "string",
					"name": "_item",
					"type": "string"
				},
				{
					"internalType": "uint256",
					"name": "_qty",
					"type": "uint256"
				}
			],
			"name": "reloadItem",
			"outputs": [],
			"stateMutability": "nonpayable",
			"type": "function"
		},
		{
			"inputs": [],
			"name": "renounceOwnership",
			"outputs": [],
			"stateMutability": "nonpayable",
			"type": "function"
		},
		{
			"inputs": [
				{
					"internalType": "string",
					"name": "",
					"type": "string"
				}
			],
			"name": "stock",
			"outputs": [
				{
					"internalType": "string",
					"name": "name",
					"type": "string"
				},
				{
					"internalType": "uint256",
					"name": "price",
					"type": "uint256"
				},
				{
					"internalType": "uint256",
					"name": "limit",
					"type": "uint256"
				},
				{
					"internalType": "uint256",
					"name": "quantity",
					"type": "uint256"
				}
			],
			"stateMutability": "view",
			"type": "function"
		},
		{
			"inputs": [
				{
					"internalType": "address",
					"name": "newOwner",
					"type": "address"
				}
			],
			"name": "transferOwnership",
			"outputs": [],
			"stateMutability": "nonpayable",
			"type": "function"
		},
		{
			"inputs": [
				{
					"internalType": "string",
					"name": "_item",
					"type": "string"
				},
				{
					"internalType": "uint256",
					"name": "_newMaxQty",
					"type": "uint256"
				}
			],
			"name": "updateItemMaxQty",
			"outputs": [],
			"stateMutability": "nonpayable",
			"type": "function"
		},
		{
			"inputs": [
				{
					"internalType": "string",
					"name": "_item",
					"type": "string"
				},
				{
					"internalType": "uint256",
					"name": "_newPrice",
					"type": "uint256"
				}
			],
			"name": "updateItemPrice",
			"outputs": [],
			"stateMutability": "nonpayable",
			"type": "function"
		},
		{
			"inputs": [],
			"name": "withdrawDistributor",
			"outputs": [],
			"stateMutability": "nonpayable",
			"type": "function"
		}
	]
}